:020000040800F2
:100000001807002001010008AF0E0008250E0008A7
:10001000AD0E0008A1010008BD1500080000000099
:10002000000000000000000000000000B30E000807
:10003000A301000800000000B10E00086D130008C5
:100040001B0100081B0100081B0100081B01000820
:100050001B0100081B0100081B0100081B01000810
:100060001B0100081B0100081B0100081B01000800
:100070001B0100081B0100081B0100081B010008F0
:100080001B0100081B0100081B0100081B010008E0
:100090001B0100081B0100081B0100081B010008D0
:1000A0001B0100081B0100081B0100081B010008C0
:1000B0001B0100081B0100081B0100081B010008B0
:1000C0001B0100081B0100081B0100081B010008A0
:1000D0001B010008B11500081B0100081B010008E6
:1000E0001B0100081B0100081B010008DFF80CD0F1
:1000F00000F044F8004800475D160008180700208B
:100100000648804706480047FEE7FEE7FEE7FEE7B1
:10011000FEE7FEE7FEE7FEE7FEE7FEE7C5130008A1
:10012000ED000008D2B201E000F8012B491EFBD21D
:1001300070470022F6E710B513460A4604461946F2
:10014000FFF7F0FF204610BD30B505462A460B46A6
:1001500012F8010B13F8014B08B1A042F8D01CB102
:10016000002802D06D1CF1E7284630BD421C10F873
:10017000011B0029FBD1801A70470000064C074D77
:1001800006E0E06840F0010394E807009847103467
:10019000AC42F6D3FFF7AEFF5417000874170008FF
:1001A000FEE77047064900B50020C88101F118003C
:1001B00001F04DFA03485DF804EB01F048BA000085
:1001C000B80100201400002072B6FEE710B590F8C8
:1001D00021100024022903D00421816301243DE081
:1001E00001680A6822F00E020A6001680A6822F0BB
:1001F00001020A601A4A0168914201D1012121E0FD
:10020000174A1432914201D110211BE0144A2832BE
:10021000914201D1891515E0114A3C32914201D138
:1002200089140FE00E4A5032914202D14FF48031CE
:1002300008E00B4A6432914202D14FF4801101E090
:100240004FF08071064A083A5160012180F8211070
:10025000002180F82010416B01B18847204610BD75
:100260000800024070B5044600F0FEF80546601C28
:1002700002D004480078044400F0F6F8401BA04285
:10028000FAD370BD040000202DE9F84FDFF8B891D3
:10029000002409F1040A0AF1040B23460F270BF18D
:1002A000040EC9E00125A5402A40AA427DD1674E2F
:1002B000D1F804C0ACEB0608B44532D014DCBCF174
:1002C000030F3AD009DCBCF1000F2AD0BCF1010FBA
:1002D0001CD0BCF1020F31D11DE0BCF1110F17D0C1
:1002E000BCF1120F2AD119E0B8F5881F19D006DC2D
:1002F000B8F5803F15D0B8F5801F1FD111E0B8F5D3
:10030000001F0ED0B8F5041F18D10AE0CB6815E025
:10031000CB681B1D12E0CB6808330FE0CB680C33B1
:100320000CE08B682BB1012B4FF0080303D0456123
:1003300004E0042302E0056100E00023FF2A01D865
:10034000064601E000F104064FEA840501D9A5F153
:100350002005D6F8008007FA05FC28EA0C0803FA05
:1003600005F548EA0508C6F800804D68ED0062D53D
:10037000374DAE6946F00106AE61AD6924F0030663
:1003800005F001050095334D06EB050CDCF808502F
:10039000A607360F07FA06F825EA0805DFF8B88041
:1003A000404503D14FF0000817E044E0DFF8AC808F
:1003B000404502D14FF001080FE0DFF8A48040452E
:1003C00002D14FF0020808E0DFF89880404502D1E2
:1003D0004FF0030801E04FF0040808FA06F848EA75
:1003E0000508CCF808804D68D9F80060ED034D464B
:1003F00001D5164300E096432E604D68DAF80060A0
:10040000AD03554601D5164300E096432E604D6876
:10041000DBF80060ED025D4601D5164300E096432F
:100420002E604D68DEF80060AD02754601D51643BA
:1004300000E096432E60641C0D682A46E5407FF478
:1004400031AFBDE8F88F000000040140000011103A
:10045000001002400000014000080140000C014073
:1004600000100140001401400148806870470000FE
:1004700004000020024881680278114481607047BE
:1004800004000020074810B5016841F01001016028
:10049000032000F075F8002000F006F800F024F8C2
:1004A000002010BD0020024070B50D4D04464FF4F1
:1004B0007A712878B1FBF0F00A490968B1FBF0F0D5
:1004C00000F0ECFA48B9102C07D200222146501E49
:1004D00000F036F800206C6070BD012070BD000097
:1004E00004000020100000200C4808B5816941F08C
:1004F00001018161816901F001010091C16941F04F
:100500008051C161C06900F080500090044841688A
:1005100021F0E06141F00071416008BD001002402F
:1005200000000140002809DB00F01F02012191407A
:100530004009800000F1E020C0F800117047000081
:10054000F0B40E4B1B680C46C3F30223C3F107053E
:10055000042D00D90425191D072901D2002300E02C
:10056000DB1E012606FA05F1491E214099409E40F6
:10057000761E16403143F0BC01F034B80CED00E0BB
:10058000064900F0070208684FF6FF03184040EAEA
:100590000220034A10430860704700000CED00E0A1
:1005A0000000FA052DE9F0470F46050061D0434EE3
:1005B000306800F00700B84209D2306820F0070028
:1005C00038433060306800F00700B84251D12868E5
:1005D0003B4C810712D5400703D5606840F4E060CA
:1005E00060602878000703D5606840F46050606060
:1005F0006068A96820F0F000084360602878C007B0
:1006000028D06868012810D02168022810D08907F6
:1006100000292EDA616821F0030101436160FFF7D0
:1006200023FF804641F288390DE021688903EFE716
:100630008901EDE7FFF718FFA0EB0801494502D952
:100640000320BDE8F0876068696800F00C00B0EB3B
:10065000810FEFD1306800F00700B8420BD9306845
:1006600020F0070038433060306800F00700B842DF
:1006700001D00120E5E72878400705D56068E968E2
:1006800020F4E060084360602878000706D56068C1
:10069000296920F4605040EAC100606000F038F839
:1006A0006168084AC1F30311515CC84006490860FB
:1006B00006480068FFF7F8FE0020C2E7002002406D
:1006C000001002403C170008100000200800002025
:1006D0000448054900684968044AC1F30221515C95
:1006E000C840704710000020001002404C1700085E
:1006F0000448054900684968044AC1F3C221515CB5
:10070000C840704710000020001002404C1700083D
:1007100012A185B00FC98DE80F0014A0144A00681B
:1007200004905168134801F00C03042B10D0082BDF
:100730000ED1C1F38343C9031DF803000AD55168E4
:1007400004AAC1F34041515C0A4A5043B0FBF1F0A6
:1007500005B0704708494843FAE700000203040562
:10076000060708090A0B0C0D0E0F101001020000FD
:100770000010024000127A0000093D002DE9F84FF8
:10078000040070D02078C04DC00749D06868C0F31D
:100790008100012807D06868C0F38100022809D1D0
:1007A0006868C00306D52868800339D560680028CA
:1007B000E7D035E06068B0F5803F0BD010B1B0F500
:1007C000A02F11D0286820F480302860286820F4F9
:1007D000802002E0286840F480302860606890B192
:1007E000FFF742FE06460AE0286840F480202860B1
:1007F000F0E700BFFFF738FE801B642873D8286835
:100800008003F7D50CE0FFF72FFE064605E000BF9A
:10081000FFF72AFE801B6428F0D828688003F7D4ED
:1008200020789A4E80074FF001094FF0000839D523
:10083000686810F00C0F07D06868C0F381000228C8
:1008400009D16868C00306D42868800714D52069D8
:10085000012808D110E02069B0B1C6F80090FFF778
:1008600003FE074605E00AE1FFF7FEFDC01B022874
:10087000C4D828688007F7D52868616920F0F80097
:1008800040EAC10028600DE0C6F80080FFF7ECFDEB
:10089000074604E0FFF7E8FDC01B022823D82868BC
:1008A0008007F7D4207800072CD57948A169D9B101
:1008B000C0F80090FFF7D8FD074604E0FFF7D4FD2D
:1008C000C01B02280FD8686A8007F7D571484FF41B
:1008D000FA510068B0FBF1F0009000BF0098411E93
:1008E0000091FAD20EE080E0C0F80080FFF7BCFD76
:1008F000074604E0FFF7B8FDC01B022875D8686AF8
:100900008007F7D42078400760D5E8690027C00049
:1009100008D4E86940F08050E861E869012700F0F8
:10092000805000905C480168C90513D40168834673
:1009300041F480710160FFF797FD824606E000BF39
:10094000FFF792FDA0EB0A0064284ED8DBF8000008
:10095000C005F5D5E06801280AD008B1052813D0F4
:10096000286A20F001002862286A20F0040002E0D2
:10097000286A40F001002862E06841F2883B98B1A3
:10098000FFF772FD82460BE0286A40F004002862FF
:10099000EEE700BFFFF768FDA0EB0A0159455AD802
:1009A000286A8007F6D50CE0FFF75EFD824605E079
:1009B000FFF75AFDA0EB0A0159454CD8286A800779
:1009C000F6D41FB1E86920F08050E861E06988B38F
:1009D0006968C1F38101022944D00228C6F8608009
:1009E00004D0FFF741FD044638E034E0FFF73CFD5A
:1009F000074604E0FFF738FDC01B02282BD8286803
:100A00008001F7D4206AB0F5803F05D16868A168FD
:100A100020F4003008436860D4E90801084369689D
:100A200021F4741108436860C6F86090FFF71CFD5C
:100A3000044606E025E000BFFFF716FD001B022874
:100A400009D828688001F7D51BE000BFFFF70CFD2F
:100A5000001B022802D90320BDE8F88F2868800116
:100A6000F4D40EE00128F7D06868226A00F48031DF
:100A7000914204D1616A00F47010884201D00120D3
:100A8000EAE70020E8E700000010024000004242D0
:100A900080044242100000200070004010B5401E4B
:100AA000B0F1807F01D3012010BD4FF0E0246061E0
:100AB0000F21601700F096FD0020A0610720206143
:100AC000002010BD7047000070B502680446106831
:100AD000D168536910F00F0F52D003F0010501F4F3
:100AE00090762E435FD0C20705D0CA0503D5E26BCE
:100AF00042F00102E263420705D5DA0703D0E26B58
:100B000042F00202E263820705D5DA0703D0E26B06
:100B100042F00402E263020707D501F020022A43F3
:100B200003D0E26B42F00802E263E26B002A33D0AA
:100B3000800604D5880602D5204600F065FC2068B2
:100B40004069E16BC0F38010090700D428B3204648
:100B500000F04CFC2068416949061AD5416921F032
:100B600040014161606BA0B12D494163606BFFF7AB
:100B70002DFB002810D0606B416BBDE8704008472A
:100B8000830610D58B060ED52046BDE8704000F0D8
:100B90003BBC2046FFF796FF70BD2046FFF792FF53
:100BA0000020E06370BD03062BD50B0629D594F811
:100BB00039002128F6D1A068B0F5805F01D1206905
:100BC000B0B1206A411C2162216800784860E08C45
:100BD000401E0004000CE084E4D12068C16821F0CC
:100BE0008001C1602068C16841F04001C16070BDF2
:100BF000206A0088C0F308005060206A801C2062D0
:100C0000E5E74006F3D54806F1D5D168204621F046
:100C10004001D160202184F8391000F002F970BD44
:100C2000DD13000870B5040004D094F839000025E5
:100C300010B106E0012070BD84F83850204600F065
:100C400023F8242084F839002068C16821F4005179
:100C5000C160204600F01EFC2068016921F490412B
:100C600001612068416921F02A0141612068C16861
:100C700041F40051C160E563202084F8390084F814
:100C80003A00002070BD000030B585B0002400940B
:100C90000194029403940068184988422CD11848A2
:100CA000816941F480418161816901F4804104914D
:100CB000816941F0040181618069124D00F00400F6
:100CC00004904FF4007000900220019003200390E4
:100CD00069462846FFF7D8FA2815CDE90004694689
:100CE00028460294FFF7D0FA002201212520FFF7C1
:100CF00027FC2520FFF716FC05B030BD0038014069
:100D0000001002400008014090F83A30202B22D118
:100D1000F9B1F2B190F83830012B1CD08162828594
:100D2000C2850021C163222280F83A2080F8381061
:100D30000168CA6842F48072CA6001684A6942F078
:100D400001024A610068C16841F02001C1600020D1
:100D50007047012070470220704700000068034977
:100D6000884201D100F0C0BC70470000003801404B
:100D70002DE9F843044690F839001F4616460D4603
:100D800020284CD1C5B1BEB194F83800012846D016
:100D9000012084F838004FF00008C4F83C8021207E
:100DA00084F83900FFF760FBA6848146E684A068DA
:100DB000B0F5805F03D004E00120BDE8F88320692E
:100DC00028B12E465FF0000584F838800EE000263A
:100DD000FAE78021204600F0B9FBA0B9AEB116F8C1
:100DE000010B21684860E08C401EE084E08C4B469B
:100DF0004FF0000200970028EBD14FF04001204651
:100E000000F0A4FB30B10320D7E735F8020BC0F3A4
:100E10000800E6E7202084F839000020CDE7022012
:100E2000CBE77047FEE7000005480021FF22C181A3
:100E3000027504228275C1750249FF20087070474F
:100E4000B801002001000020094808B5816941F07F
:100E500020018161816901F020010091816941F0E7
:100E600004018161806900F00400009008BD000069
:100E7000001002400C4810B50A4901604FF41651A9
:100E80004160002181600C22C160C0E904128161CF
:100E9000C161FFF7C7FE002803D0BDE81040FFF78F
:100EA00093B910BD0038014078010020FEE7FEE74D
:100EB000704770472DE9F0471C4C03274FF000089E
:100EC000E77584F8148004254FF47A69A5754A46BD
:100ED00017A118A000F062F94FF0FF3A01281FD1C6
:100EE00004F58C764A4686F80080A575C84610A1A0
:100EF00018A000F053F9012812D13070A5754246B0
:100F00000BA11DA000F04AF9012809D10220307080
:100F1000A575424606A11CA000F040F9012802D0A8
:100F20005046BDE8F08737700120FAE7B80100208D
:100F30004F4B000041542B53415042523D332C3112
:100F40002C22436F6E74797065222C2247505253C5
:100F5000220D0A0041542B53415042523D332C3153
:100F60002C2241504E222C22762D696E7465726EB1
:100F70006574220D0A00000041542B534150425227
:100F80003D312C310D0A000041542B534150425247
:100F90003D322C310D0A000010B54FF47A6206A1E3
:100FA00006A000F0FBF801464FF0FF30012902D106
:100FB00006490870012010BD4F4B000041542B53CF
:100FC000415042523D302C310D0A0000D002002029
:100FD000094910B5042088754FF47A6207A108A06A
:100FE00000F0DCF801464FF0FF30012903D1084939
:100FF00081F83300012010BDB80100204F4B0000E4
:1010000041542B485454505445524D0D0A00000091
:10101000D00200202DE9F14F394E82B0002086F831
:101020003400A6F58C74042540F6B838A575424600
:1010300034A135A000F0B2F80127012801D186F8CB
:101040003370A57542462FA133A000F0A7F8012800
:1010500002D1022086F83300A57540F6B83229A1E6
:1010600033A000F09BF8012802D1032086F833005A
:10107000A57504F118004FF00008A94649F6404B49
:10108000BA46009084F8169042F2107234A137A04C
:1010900000F084F801281DD1029800F015FBFFF73D
:1010A00081F8FFF7E1F905465F4604E015A10098D5
:1010B000FFF74AF820B9FFF7D7F9411BB942F5D33A
:1010C00084F816A044F620622EA12FA000F066F846
:1010D00001280DD008F1010808F0FF08B8F1040F4D
:1010E000D0D396F83400002800D1401EBDE8FE8F12
:1010F00086F834A040F6B830FFF7B4F80120F5E7E1
:10110000D00200204F4B000041542B48545450490A
:101110004E49540D0A00000041542B48545450507D
:101120004152413D22434944222C310D0A00000026
:1011300041542B48545450504152413D2255524C39
:10114000222C226170692E7468696E677370656104
:101150006B2E636F6D2F757064617465220D0A00CC
:10116000444F574E4C4F41440000000041542B481F
:10117000545450444154413D3130302C31303030A2
:10118000300D0A003230300041542B485454504145
:101190004354494F4E3D310D0A0000002DE9F74FF1
:1011A0004FF0FF3982B017464C462D4EDFF8B48021
:1011B0004EE000BFFEF7F6FFFFF756F90546FFF7D2
:1011C00053F90090029800F07FFA26484FF0000A89
:1011D00000F10C0100F1180B019108E0FFF744F950
:1011E000401BB84203D9484605B0BDE8F08F3078BF
:1011F0000028F3D0FFF738F9054617E001221A4816
:101200000199FFF781FD70B1FFF72EF90099401A9F
:1012100064280BD986F800A058460399FEF794FF7E
:10122000E0B1012418E0FFF71FF90090FFF71CF967
:10123000401BB842E2D3601CD9D0012C0CD04FF433
:101240007A70FFF70FF898F81610491E88F81610F4
:1012500098F816000028ADD12046C5E74C46C6E7F1
:1012600000000020B8010020780100202DE9F0479F
:10127000FFF7DAFD274C04264FF47A70A675FEF7C7
:10128000F1FF40F6B8394A4623A124A0FFF786FFB4
:10129000751F401C1DD0A67541F2883221A125A0E2
:1012A000FFF77CFF401C17D04FF4FA60FEF7DAFF1F
:1012B000FFF7DAF84CF250310844012704F118081E
:1012C00020611FA14046FEF73FFF40B10220E075BC
:1012D00013E02846BDE8F08728462575FAE71BA1EC
:1012E0004046FEF731FF18B125752846E775F1E74E
:1012F000FFF7BAF821698842E3D9A6754A4606A1E4
:1013000016A0FFF74BFF012801D1174807700120F5
:10131000E0E70000B80100204F4B000041540D0AE7
:10132000000000002B4350494E3A20524541445999
:101330000000000041542B4350494E3F0D0A00006D
:10134000534D532052656164790000004E4F542084
:10135000494E5345525445440000000041542B432C
:101360004D47463D310D0A0001000020FFF782B8CD
:1013700030B58FB028216846FEF7DBFE14210AA89D
:10138000FEF7D7FE0120022504900095102005905D
:101390000024CDE9075468460994FFF7EFF908B136
:1013A00072B6FEE70F200A90CDE90B540D94002190
:1013B0000AA80E94FFF7F6F8002801D072B6FEE7EF
:1013C0000FB030BD70470000012202490248FFF70C
:1013D0009BBC0000C40100207801002010B5406AC9
:1013E0000021C185C184FFF76DFB10BD0168CA688B
:1013F00022F49072CA6001684A6922F001024A61CF
:10140000202180F83A10704710B590F83A10222940
:1014100001D0022010BD82684FF480539A4201D15E
:10142000016921B1816A9A421BD04AB10AE002687F
:10143000816A5268C2F308020A80816A891C08E046
:10144000026972B10268526802F07F020A70816A12
:10145000491C8162C18D491E0904090CC18503D054
:1014600016E002685268F1E70168CA6822F02002BB
:10147000CA600168CA6822F48072CA6001684A6959
:1014800022F001024A61202180F83A10FFF766FC41
:10149000002010BD70B5044600680169E26821F4BF
:1014A0004051114301612169A06808436169084303
:1014B0002168CA6841F20C639A430243CA602068FB
:1014C0004169A26921F44071114341611E492068BC
:1014D000884202D1FFF70CF901E0FFF7F9F800EBC1
:1014E000C00101EB0012606864218000B2FBF0F3E0
:1014F000B3FBF1F36FF018067343B2FBF0F5B2FBE8
:10150000F0F605EB8305322303EB0515B5FBF1F58A
:10151000B6FBF1F605F0F00505EB0615B2FBF0F6AB
:10152000B2FBF0F0B0FBF1F06FF01802504306EBA5
:10153000800003EB0010B0FBF1F0216800F00F0019
:101540002844886070BD0000003801402DE9F0415A
:10155000984617460E460446069D1DE0681C1BD0A3
:101560002DB1FEF781FFA0EB0800A84214D9206836
:10157000C16821F4D071C1602068416921F0010186
:101580004161202084F8390084F83A00002084F872
:1015900038000320BDE8F0812068006836EA0000CA
:1015A00004D00020B842D9D00020F3E70120F9E7A9
:1015B0000148FFF789BA000078010020FEE700002B
:1015C0000FB4084610B5064A02A900F02AF80446EE
:1015D00002A9002000F036F8204610BC5DF814FB8C
:1015E000451600080907090E002804DB00F1E02079
:1015F00080F80014704700F00F0000F1E02080F840
:10160000141D704702E008C8121F08C1002AFAD151
:1016100070477047002001E001C1121F002AFBD172
:1016200070472DE9F04116460F460446002503E0B9
:101630003946B047641C6D1C20780028F8D1284634
:10164000BDE8F0810A68531C0B60107070470021E0
:101650000A464254491CFF29FBDD7047FEF712FF82
:10166000FFF786FEFFF7F0FBFFF704FCFFF7ACFE89
:10167000FFF7FCFD012810D1FFF71CFC01280CD15D
:1016800006A11048FFF79CFF0E48FFF7C3FC012896
:1016900001D1FFF79DFCFFF77FFCFEE76170695FFA
:1016A0006B65793D525146544F4A485A3749353651
:1016B000454B4B4B266669656C64313D37300D0AEE
:1016C000000000001401002010B50446FEF74EFD96
:1016D000214682B2BDE8104040F6B8330148FFF71A
:1016E00047BB000078010020104830B4C2890021B7
:1016F000FF2A00D9C1810D4AC4891832037BA35443
:10170000C2890B4C037BA354084B1933D154C289B3
:10171000631CD154521CC281064901200246087044
:10172000024930BC0C310448FFF7EEBAB801002082
:1017300014000020000000207801002000000000BC
:101740000000000001020304060708090000000071
:1017500001020304741700080000002014000000B8
:101760000416000888170008140000200407000071
:101770001416000800000000010000001000000026
:08178000000000000024F40049
:04000005080000ED02
:00000001FF
