:020000040800F2
:10000000C8070020010100082F2800089D230008D0
:100010002D2800086D07000865300008000000006A
:100020000000000000000000000000005D29000842
:10003000490B00080000000031280008312D00089D
:100040001B0100081B0100081B0100081B01000820
:100050001B0100081B0100081B0100081B01000810
:100060001B0100081B0100081B0100081B01000800
:100070001B0100081B0100081B0100081B010008F0
:100080001B0100081B0100081B0100081B010008E0
:100090001B0100081B0100081B0100081B010008D0
:1000A0001B0100081B0100081B0100081B010008C0
:1000B0008D2D00081B0100081B0100081B01000812
:1000C0001B0100081B0100081B0100081B010008A0
:1000D0001B010008593000081B0100081B01000823
:1000E0001B0100081B0100081B010008DFF80CD0F1
:1000F00000F0ACFA00480047B13A0008C8070020F9
:100100000648804706480047FEE7FEE7FEE7FEE7B1
:10011000FEE7FEE7FEE7FEE7FEE7FEE7892D0008C3
:10012000ED000008202A04DB203A21FA02F0002129
:10013000704721FA02F3D040C2F1200291400843F7
:1001400019467047D2B201E000F8012B491EFBD2DC
:1001500070470022F6E710B513460A4604461946D2
:10016000FFF7F0FF204610BD30B505462A460B4686
:1001700012F8010B13F8014B08B1A042F8D01CB1E2
:10018000002802D06D1CF1E7284630BD421C10F853
:10019000011B0029FBD1801A7047962300221146CB
:1001A00000F06EB800F0004230F000400AD0C10DFF
:1001B00001F56071C0F3160042EA0151C208400720
:1001C000114370470020014670470000002801DB02
:1001D000C0F10040002901DBC1F1004181427047BC
:1001E00030B50B46014600202022012409E021FA07
:1001F00002F59D4205D303FA02F5491B04FA02F504
:100200002844151EA2F10102F1DC30BD2DE9F05F9A
:100210000546002092469B46884606468146402475
:100220001BE02846414647462246FFF77BFF5346E0
:100230005A46C01A914110D311461846224600F082
:1002400017FA2D1A67EB01084F46224601200021BC
:1002500000F00EFA17EB00094E41201EA4F1010434
:10026000DFDC484631462A464346BDE8F09F002978
:10027000A8BF7047401C490008BF20F0010070472C
:1002800010B4B0FA80FC00FA0CF050EA010404BF8C
:1002900010BC704749B1CCF1200421FA04F411FAE2
:1002A0000CF118BF012121430843A3EB0C01CB1D26
:1002B0004FEA00614FEA102042BF002010BC704797
:1002C00000EBC35010440029A4BF10BC7047401C71
:1002D000490008BF20F0010010BC70472DE9FE4F17
:1002E000804681EA0300C00F0C46009021F00041D7
:1002F00023F00045B8EB0200A94105D24046214653
:1003000090461C460B46024623F00040104347D05F
:10031000270DC7F30A00C3F30A510290401A019057
:1003200040286BDAC3F3130040F4801B0098924618
:1003300020B10023D2EB030A63EB0B0B0198594663
:10034000C0F14002504600F093F906460D46504673
:100350005946019A00F09BF910EB08006141002416
:1003600087EA115284EAE7731A4340D0009A62B3D5
:10037000019A012A4FEA075215DC001B61EB0201CA
:100380004FF0004202EA0752CDE90042001C41F55D
:10039000801132462B4600F09BF903B0BDE8F08F88
:1003A00040462146F9E7001B61EB0201001C41F5C4
:1003B000801300185B412018A2F5001747EB0301DA
:1003C00040EAD570B6196D4111E06D084FEA360666
:1003D00045EAC0754FEA0752001B61EB0201001CA1
:1003E00041F5801149084FEA300000195141324669
:1003F0002B4603B0BDE8F04F00F05BB90098012236
:1004000040000023D0EB020263EBE073009821462A
:100410004FEAE074B8EB000061EB0401E9E783F018
:1004200000435BE781F0004158E72DE9FE4F81EA88
:10043000030404F0004421F0004100944FF0000B4D
:1004400023F0004350EA01045ED052EA03045BD07B
:10045000C3F30A54C1F30A552C44A4F2F3340194B3
:10046000A0FB0254C1F3130141F48011C3F3130341
:1004700043F4801301FB024400FB034E840A970AF5
:1004800044EA815447EA8357A4FB076802958D0A22
:1004900005FB07854FEA932C04FB0C542705029DAE
:1004A0004FEA065847EA1637B5EB08056EEB070C1E
:1004B000870E920E47EA811742EA8312A7FB0201D8
:1004C000B6EB0B0164EB00042B0D43EA0C335E1812
:1004D00044EB1C50DA465146E7FB0201C5F3130416
:1004E0004FEA0B3343EA14534FEA0432019C43EAC8
:1004F0000603A4F10C040294009CCDE900B400F0C2
:10050000E7F803B0BDE8F08F00200146F9E72DE9D8
:10051000F04D81EA030404F0004B21F0004514463D
:100520004FF0000A23F0004150EA050220D054EABF
:1005300001021DD0C5F30A570246C5F31303C1F3E8
:100540001300C1F30A5640F4801543F48013A7EB5F
:100550000608101BD64608F2FD3873EB050002D3DF
:1005600008F1010801E092185B41B8F1000F03DACD
:1005700000200146BDE8F08D00204FF480110646B2
:1005800084460EE0171B73EB050705D3121B63EBC4
:10059000050306434CEA010C49084FEA3000921863
:1005A0005B4150EA0107EDD152EA030012D082EA22
:1005B000040083EA0501084305D0101BAB4106D2B5
:1005C0000122002306E000224FF0004302E06FF01A
:1005D000010253101AEB06004CEB085110EB0A0015
:1005E00041EB0B01BDE8F04D00F063B8C1F30A52D6
:1005F000C1F3130140F2FF3341F480119A4202DA51
:1006000000200146704740F233439A42A2F233423F
:1006100002DC5242FFF786BD00F02AB830B5041E56
:1006200071F1000404DB4FF00044404264EB01012F
:10063000141E73F1000405DB1C464FF000435242C8
:1006400063EB0403994208BF904230BD064C074D4E
:1006500006E0E06840F0010394E807009847103492
:10066000AC42F6D3FFF746FDEC3D00080C3E000817
:10067000202A04DB203A00FA02F100207047914062
:10068000C2F1200320FA03F3194390407047202A57
:1006900006DBCB17203A41FA02F043EAE07306E0AA
:1006A00041FA02F3D040C2F12002914008431946BA
:1006B000704710B5141E73F1000408DA401C41F1B4
:1006C000000192185B411A4301D120F0010010BDD6
:1006D0002DE9F04D92469B4611B1B1FA81F202E04C
:1006E000B0FA80F220329046FFF7C2FF04460F4670
:1006F00040EA0A0041EA0B0153465A46084313D028
:10070000114653EA010019D0C8F140025046FFF7E4
:1007100009FD05460E46504659464246FFF7A8FFDA
:10072000084305D0012004E020463946BDE8F08D9D
:100730000020054346EAE0762C4337430A986305D8
:10074000E40AA0EB08000022FD0A44EA47540A30FC
:1007500002D500200146E9E7010510196941DDE9EC
:10076000084500196941BDE8F04DA2E7FEE7017AAE
:10077000002221F00101017200F0F0B8017A00229C
:1007800041F00101017200F0E9B810B50022012129
:1007900000F0E4F8BDE81040052000F017BB10B5EC
:1007A00004460298216022716371A0712820A07212
:1007B0000620E0710C202072142060720820E07284
:1007C000322000F003FB00223321204600F0C6F85F
:1007D00000223321204600F0C1F8052000F0F6FA8F
:1007E00000223221204600F0B9F8052000F0EEFA90
:1007F00000222021204600F0B1F8052000F0E6FAA2
:10080000E1790022204600F0A9F8217A0022204652
:1008100000F0A4F8617A0022204600F09FF8A17A47
:100820000022204600F09AF800220121204600F024
:1008300095F820460022BDE81040022100F08EB855
:1008400030B4447900238C4201D8641EE1B284792B
:10085000944201D8641EE2B232B1012A06D0022AC3
:1008600007D0032A08D00AE00B4608E001F1400354
:1008700004E001F1140301E001F15403DBB20C4682
:1008800005494C708A700A70CC7030BC43F080010E
:10089000002200F063B800000000002010B5012223
:1008A00000F05CF80F48C178491CC9B2C1700279E8
:1008B000002A16D0142914D1007860B101280CD078
:1008C00002280CD003280CD10022BDE810400021E2
:1008D0000548FFF7B5BF0122F7E70222F5E703223B
:1008E000F3E710BD00000020500000202DE9F0418A
:1008F0000D468046174C23E000272771002607E0AD
:10090000297801B340466D1CFFF7C8FF761CF6B28C
:100910006078C0F11400B042F2DC287898B12078F9
:1009200038B1012807D0022811D00328E5D10022D0
:1009300002E0012200E0022200210748FFF780FFC9
:1009400028780028D8D101202071BDE8F081032249
:10095000F2E7000000000020500000207CB50646B1
:100960000807040EF07A01F0F00518B145F008050B
:1009700044F00804012A01D02AB108E045F001053D
:1009800044F0010403E025F0010524F0010445F0E2
:1009900004008DF80400012000F018FA8DF80550CD
:1009A00044F004008DF80600012000F00FFA4FF427
:1009B0007A708DF8074000903179042301AA3068DD
:1009C00000F092FC7CBD00002DE9F0411A48FFF7D1
:1009D000CEFE1A4D1A4C2978207800F001F9194EF4
:1009E000306800F0DFF800F08DF800F03BF81649B1
:1009F000087000F059F8154F387000F055F8144998
:100A0000087000F051F8207000F04EF8287000F0E7
:100A10004BF8104908701049207808700F493C784D
:100A20000C70FFF7BAFB0E4908602046FFF7B5FBD4
:100A30003060BDE8F081000050000020330000204D
:100A40003200002038000020160000203000002076
:100A50003100002034000020360000203500002046
:100A60002400002070B50024282002F0E7FF0D4E7E
:100A70004FF480752946304600F062FB50B9502093
:100A800002F0DCFF2946304600F05AFB08B1012491
:100A900000E0FF242946304600F052FB0028F9D13F
:100AA000204670BD000C01402DE9F041144E002499
:100AB0004FF001084FF480773946304600F040FB94
:100AC0000028F9D0282002F0B9FF3946304600F05E
:100AD00037FB0028C4F1070108FA01F00ED02843C3
:100AE000C5B23946304600F02BFB0028F9D1641C12
:100AF000E4B2082CE0D32846BDE8F0818543F0E756
:100B0000000C014070B50F4D4FF48074214628460B
:100B100001F058FF00222146284600F016FB44F25F
:100B2000506002F08BFF01222146284600F00DFBA9
:100B3000142002F083FF21462846BDE8704001F0F2
:100B400035BF0000000C01407047000070B505463D
:100B5000024600210848FFF773FE00242A4621467A
:100B60000548FFF76DFE05A10348FFF7BFFE641CB3
:100B7000E4B2142CF2D370BD50000020200000001D
:100B8000064900B50020C88101F1180002F062FF9B
:100B900003485DF804EB02F05DBF00005C0000203C
:100BA000840100201FB50446002210210948FFF7E8
:100BB00047FE2046FFF7F6FA2522009202460B4632
:100BC00005A101A802F050FA01A90248FFF78EFE24
:100BD0001FBD000050000020252E30662563000058
:100BE0007FB50C460546002205210848FFF728FE80
:100BF000DF20009023462A4605A101A802F034FA1E
:100C000001A90248FFF772FE7FBD000050000020DE
:100C100025642E25642563430000000072B6FEE7BC
:100C200006490020C8610648016941F004010161DC
:100C3000016941F04001016170470000A8030020F4
:100C400000200240064A0021D16106490A6942F0AB
:100C500002020A614861086940F04000086170477B
:100C6000A803002000200240044B0022DA61044A5D
:100C7000136943F00103136101807047A80300204A
:100C80000020024014480022C168CB06134904D555
:100C9000CA6942F00202CA611022C3685B0705D527
:100CA000CB6943F00103CB6142F00402C369DB0767
:100CB00007D0CB6943F00403CB61C16921F0010186
:100CC000C161A2F58071013901D0C2607047C1696C
:100CD00021F00101C161704700200240A8030020FB
:100CE00070B5054600F036FA0646114C09E0681C5E
:100CF00007D025B100F02EFA801BA84201D90320AD
:100D000070BDE068C007F2D1E068800601D5202000
:100D1000E060E068C00605D4E069C00702D1E06881
:100D2000400703D5FFF7AEFF012070BD002070BD66
:100D30000020024010B590F821100024022903D0B1
:100D40000421816301243DE001680A6822F00E025B
:100D50000A6001680A6822F001020A601A4A016802
:100D6000914201D1012121E0174A1432914201D16F
:100D700010211BE0144A2832914201D1891515E057
:100D8000114A3C32914201D189140FE00E4A50328F
:100D9000914202D14FF4803108E00B4A6432914213
:100DA00002D14FF4801101E04FF08071064A083AF9
:100DB0005160012180F82110002180F82010416B42
:100DC00001B18847204610BD0800024070B50446B6
:100DD00000F0C0F90546601C02D0044800780444C5
:100DE00000F0B8F9401BA042FAD370BD40000020CB
:100DF0002DE9F047054626480F460126017E0129C8
:100E00000FD00121814601762868DFF888804CF2F6
:100E10005034022808D0A2462046FFF761FFA8B14F
:100E200031E00220BDE8F0872046FFF759FF08BBFC
:100E30000120FFF7F5FE2046FFF752FFD8F810100B
:100E4000064621F00401C8F810101CE04FF0FF30F6
:100E50003860AC6811E02046FFF7F4FE5046FFF71B
:100E60003FFFD8F81010060021F00201C8F810105A
:100E700001D03C6007E004F58064D5E9020100EB95
:100E80008120A042E7D8002189F818103046C9E730
:100E9000A8030020002002400148C06970470000FC
:100EA000A80300200348016941F08001016100208E
:100EB00070470000002002402DE9F05F07461C4803
:100EC00088460024017E15461E46012909D00121CD
:100ED000814601764CF2503A5046FFF701FF18B1B7
:100EE00022E00220BDE8F09F012F02D0022F00D0A7
:100EF0000427D346DFF83CA0220128463146FFF7FD
:100F000011F981B208EB4400FFF7AEFE5846FFF737
:100F1000E7FEDAF8102022F00102CAF8102018B912
:100F2000641CE4B2BC42E7D3002289F81820D9E758
:100F3000A803002000200240064900200A6912068A
:100F400007D5054A4A60054A4A600969090600D57D
:100F5000012070470020024023016745AB89EFCD97
:100F60002DE9F84FDFF8B891002409F1040A0AF1DD
:100F7000040B23460F270BF1040EC9E00125A54001
:100F80002A40AA427DD1674ED1F804C0ACEB0608D6
:100F9000B44532D014DCBCF1030F3AD009DCBCF10B
:100FA000000F2AD0BCF1010F1CD0BCF1020F31D1CF
:100FB0001DE0BCF1110F17D0BCF1120F2AD119E0BE
:100FC000B8F5881F19D006DCB8F5803F15D0B8F504
:100FD000801F1FD111E0B8F5001F0ED0B8F5041F17
:100FE00018D10AE0CB6815E0CB681B1D12E0CB6876
:100FF00008330FE0CB680C330CE08B682BB1012B6E
:101000004FF0080303D0456104E0042302E00561CA
:1010100000E00023FF2A01D8064601E000F10406A3
:101020004FEA840501D9A5F12005D6F8008007FA1A
:1010300005FC28EA0C0803FA05F548EA0508C6F895
:1010400000804D68ED0062D5374DAE6946F001066F
:10105000AE61AD6924F0030605F001050095334D3E
:1010600006EB050CDCF80850A607360F07FA06F861
:1010700025EA0805DFF8B880404503D14FF00008A5
:1010800017E044E0DFF8AC80404502D14FF00108A2
:101090000FE0DFF8A480404502D14FF0020808E0DD
:1010A000DFF89880404502D14FF0030801E04FF08F
:1010B000040808FA06F848EA0508CCF808804D68E4
:1010C000D9F80060ED034D4601D5164300E0964384
:1010D0002E604D68DAF80060AD03554601D5164321
:1010E00000E096432E604D68DBF80060ED025D463F
:1010F00001D5164300E096432E604D68DEF800608F
:10110000AD02754601D5164300E096432E60641C7F
:101110000D682A46E5407FF431AFBDE8F88F000046
:1011200000040140000011100010024000000140C6
:1011300000080140000C0140001001400014014073
:101140008068084000D0012070470AB101617047F3
:101150000904FBE701488068704700004000002058
:1011600070B5040025D094F83D00002520B984F81E
:101170003C50204600F04EF9242084F83D002068C1
:10118000016821F0010101602068016841F400411B
:1011900001602068016821F40041016000F096FAC6
:1011A0004D4A6168914201D84C4900E04C4988425F
:1011B00001D2012070BD4B492368B0FBF1F15E689C
:1011C00026F03F060E435E606368934206D94FF4F3
:1011D000967359434FF47A73B1FBF3F12368491CBA
:1011E0001E6A26F03F06314319626168914210D8A9
:1011F0004900401EB0FBF1F2521CC2F30B02042A5C
:1012000001D2042022E0B0FBF1F0401CC0F30B003F
:101210001CE0A268F2B301EBC10303EB0116431E0D
:10122000B3FBF6F35B1C43F480431B0549D092B338
:1012300001EBC10202EB0111401EB0FBF1F0401CBA
:10124000C0F30B0040F4804040F400402168CA69BC
:101250004CF6FF739A431043C861D4E90710014369
:101260002068026822F0C00211430160D4E9030142
:1012700001432068826848F2FF339A43114381603A
:10128000D4E9050108432168CA6822F0FF0210432F
:10129000C86001E00EE016E02068016841F001013D
:1012A00001602564202084F83D00256384F83E50C9
:1012B000002070BD01EB4106431EB3FBF6F35B1C3F
:1012C000B3E70120C2E701EB4101401EB0FBF1F0A2
:1012D000401CC0F30B00B7E7A086010080841E000D
:1012E00000093D0040420F002DE9F84F1F4690468F
:1012F0008A460446DDF82890FFF72CFF054694F84F
:101300003D0020287FD11923012240492046009525
:1013100001F0D0F8002876D194F83C00012872D072
:10132000012084F83C0020680168C90703D10168E6
:1013300041F0010101602068016821F40061016051
:10134000212084F83D00102084F83E000026266409
:10135000C4F824806785608D20852D48E0622B4687
:101360004A465146204601F031F890B9206841695B
:101370008069009036E02A464946204601F019F976
:1013800050B1206C042804D12068016841F4007138
:1013900001600120BDE8F88F606A2168007808616B
:1013A000606A401C6062618D491E6185218D491E05
:1013B00089B2218522685369DB435B070BD451B1A5
:1013C00000781061606A401C6062608D401E60851C
:1013D000208D401E20852A464946204601F044F8CB
:1013E0000028CED1208D0028C5D154F83D0B0168CE
:1013F00041F400710160202004F81E09E677667749
:101400000020C7E7FFE70220C4E700000200100049
:101410000000FFFF10B586B00021009101910291FC
:10142000039100680F4988421AD10F4CA06940F01F
:101430000800A061A069694600F008000490C0207F
:10144000009012200190032003900848FFF788FDC8
:10145000E06940F40010E061E06900F400100490DD
:1014600006B010BD0054004000100240000C0140C6
:101470000248816802781144816070474000002072
:10148000074810B5016841F010010160032000F029
:1014900075F8002000F006F800F024F8002010BDD8
:1014A0000020024070B50D4D04464FF47A71287843
:1014B000B1FBF0F00A490968B1FBF0F000F0ECFA7A
:1014C00048B9102C07D200222146501E00F036F8F1
:1014D00000206C6070BD012070BD00004000002045
:1014E0004C0000200C4808B5816941F00101816180
:1014F000816901F001010091C16941F08051C16130
:10150000C06900F0805000900448416821F0E0611B
:1015100041F00071416008BD001002400000014030
:10152000002809DB00F01F020121914040098000E2
:1015300000F1E020C0F8001170470000F0B40E4B3D
:101540001B680C46C3F30223C3F10705042D00D921
:101550000425191D072901D2002300E0DB1E012606
:1015600006FA05F1491E214099409E40761E16401C
:101570003143F0BC01F08CBD0CED00E0064900F0F9
:10158000070208684FF6FF03184040EA0220034AAA
:1015900010430860704700000CED00E00000FA0501
:1015A0002DE9F0470F46050061D0434E306800F04A
:1015B0000700B84209D2306820F007003843306095
:1015C000306800F00700B84251D128683B4C8107D1
:1015D00012D5400703D5606840F4E0606060287869
:1015E000000703D5606840F4605060606068A968D7
:1015F00020F0F000084360602878C00728D06868B1
:10160000012810D02168022810D0890700292EDA7D
:10161000616821F0030101436160FFF79BFD804693
:1016200041F288390DE021688903EFE78901EDE790
:10163000FFF790FDA0EB0801494502D90320BDE862
:10164000F0876068696800F00C00B0EB810FEFD1A3
:10165000306800F00700B8420BD9306820F007006E
:1016600038433060306800F00700B84201D00120F4
:10167000E5E72878400705D56068E96820F4E06070
:10168000084360602878000706D56068296920F45F
:10169000605040EAC100606000F038F86168084AB4
:1016A000C1F30311515CC840064908600648006850
:1016B000FFF7F8FE0020C2E70020024000100240C1
:1016C000D43D00084C000020440000200448054997
:1016D00000684968044AC1F30221515CC840704760
:1016E0004C00002000100240E43D00080448054979
:1016F00000684968044AC1F3C221515CC840704780
:101700004C00002000100240E43D000812A185B00A
:101710000FC98DE80F0014A0144A006804905168A6
:10172000134801F00C03042B10D0082B0ED1C1F389
:101730008343C9031DF803000AD5516804AAC1F305
:101740004041515C0A4A5043B0FBF1F005B070478C
:1017500008494843FAE700000203040506070809A0
:101760000A0B0C0D0E0F10100102000000100240B9
:1017700000127A0000093D002DE9F84F040070D0F6
:101780002078C04DC00749D06868C0F381000128A7
:1017900007D06868C0F38100022809D16868C003D7
:1017A00006D52868800339D560680028E7D035E081
:1017B0006068B0F5803F0BD010B1B0F5A02F11D00C
:1017C000286820F480302860286820F4802002E017
:1017D000286840F480302860606890B1FFF7BAFC58
:1017E00006460AE0286840F480202860F0E700BF41
:1017F000FFF7B0FC801B642873D828688003F7D5F6
:101800000CE0FFF7A7FC064605E000BFFFF7A2FCCF
:10181000801B6428F0D828688003F7D420789A4E7B
:1018200080074FF001094FF0000839D5686810F0C3
:101830000C0F07D06868C0F38100022809D16868DE
:10184000C00306D42868800714D52069012808D170
:1018500010E02069B0B1C6F80090FFF77BFC0746A6
:1018600005E00AE1FFF776FCC01B0228C4D828680F
:101870008007F7D52868616920F0F80040EAC100C8
:1018800028600DE0C6F80080FFF764FC074604E01E
:10189000FFF760FCC01B022823D828688007F7D414
:1018A000207800072CD57948A169D9B1C0F80090FB
:1018B000FFF750FC074604E0FFF74CFCC01B022872
:1018C0000FD8686A8007F7D571484FF4FA5100685D
:1018D000B0FBF1F0009000BF0098411E0091FAD2D9
:1018E0000EE080E0C0F80080FFF734FC074604E01B
:1018F000FFF730FCC01B022875D8686A8007F7D450
:101900002078400760D5E8690027C00008D4E8695E
:1019100040F08050E861E869012700F080500090B5
:101920005C480168C90513D40168834641F480719D
:101930000160FFF70FFC824606E000BFFFF70AFCDC
:10194000A0EB0A0064284ED8DBF80000C005F5D5EE
:10195000E06801280AD008B1052813D0286A20F0D1
:1019600001002862286A20F0040002E0286A40F0A2
:1019700001002862E06841F2883B98B1FFF7EAFB7A
:1019800082460BE0286A40F004002862EEE700BFC0
:10199000FFF7E0FBA0EB0A0159455AD8286A8007F7
:1019A000F6D50CE0FFF7D6FB824605E0FFF7D2FB49
:1019B000A0EB0A0159454CD8286A8007F6D41FB11C
:1019C000E86920F08050E861E06988B36968C1F394
:1019D0008101022944D00228C6F8608004D0FFF7B4
:1019E000B9FB044638E034E0FFF7B4FB074604E0F7
:1019F000FFF7B0FBC01B02282BD828688001F7D462
:101A0000206AB0F5803F05D16868A16820F40030F5
:101A100008436860D4E908010843696821F4741137
:101A200008436860C6F86090FFF794FB044606E040
:101A300025E000BFFFF78EFB001B022809D82868AD
:101A40008001F7D51BE000BFFFF784FB001B0228D5
:101A500002D90320BDE8F88F28688001F4D40EE095
:101A60000128F7D06868226A00F48031914204D1DD
:101A7000616A00F47010884201D00120EAE700207A
:101A8000E8E70000001002400000424280044242A9
:101A90004C0000200070004010B5401EB0F1807F67
:101AA00001D3012010BD4FF0E02460610F216017C9
:101AB00001F0EEFA0020A06107202061002010BD97
:101AC0007047704770B590F83C20012A26D0012459
:101AD00080F83C40022280F83D2003685A689D68E7
:101AE00022F070060A6832435A600D4B02689A422F
:101AF00008D0B2F1804F05D00A4B9A4202D00A4B6F
:101B00009A4204D1496825F080031943916080F816
:101B10003D40002180F83C10084670BD022070BD99
:101B2000002C0140000400400008004010B50400F3
:101B300003D094F83D0010B107E0012010BD002053
:101B400084F83C00204600F01FF8022084F83D0095
:101B5000211D206801F020F9012084F8460084F856
:101B60003E0084F83F0084F8400084F8410084F887
:101B7000420084F8430084F8440084F8450084F867
:101B80003D00002010BD000008B5114A0168114851
:101B9000914208D1816941F400618161806900F45A
:101BA0000060009008BDB1F1804FFBD1C16941F0E8
:101BB0000101C161C069002200F001000090022112
:101BC0001C20FFF7BBFCBDE808401C20FFF7A8BCA9
:101BD000002C01400010024090F83D10012901D076
:101BE00001207047022180F83D1000680B498842AF
:101BF00008D0B0F1804F05D00949884202D0094988
:101C0000884204D1816801F00701062903D00168E8
:101C100041F001010160002070470000002C0140EC
:101C2000000400400008004090F83D10012901D058
:101C300001207047022180F83D100168CA6842F017
:101C40000102CA6000680B49884208D0B0F1804F99
:101C500005D00949884202D00849884204D18168E8
:101C600001F00701062903D0016841F0010101607C
:101C700000207047002C0140000400400008004094
:101C800070B5044690F83C00012817D0012584F86F
:101C90003C50022084F83D002068826822F07702E0
:101CA00022F47F4282600868502830D00DDC202862
:101CB0004DD005DC98B310283BD148E0022070BD20
:101CC000302844D0402834D139E0602828D070280A
:101CD00006D0B0F5805F2CD0B0F5005F29D10AE0C6
:101CE000CB68D1E90121206801F08CF82068816877
:101CF00041F0770109E0CB68D1E90121206801F0CA
:101D000081F82068816841F48041816011E0CA68EF
:101D10004968206801F088F85021206807E016E043
:101D2000CA684968206801F090F86021206801F0D5
:101D300073F884F83D50002084F83C0070BDCA68F8
:101D40004968206801F070F840212068EFE72268B8
:101D500001461046EBE7704770B50446006801691C
:101D60004FF00005C943890715D4C168C9438907E5
:101D700011D4E91E01610120207720688069800765
:101D8000204602D0FFF7E7FF04E000F098F8204675
:101D900000F096F8257720680169C943490717D4F0
:101DA000C168C943490713D46FF0040101610220DF
:101DB00020772068806910F4407F204602D0FFF72A
:101DC000CAFF04E000F07BF8204600F079F82577A0
:101DD00020680169C943090716D4C168C9430907C6
:101DE00012D46FF008010161042020772068C069D7
:101DF0008007204602D0FFF7AEFF04E000F05FF856
:101E0000204600F05DF8257720680169C943C906BE
:101E100017D4C168C943C90613D46FF0100101611A
:101E2000082020772068C06910F4407F204602D047
:101E3000FFF791FF04E000F042F8204600F040F880
:101E4000257720680169C943C90708D1C168C9431A
:101E5000C90704D1891E0161204600F033F82068CB
:101E60000169C943090609D4C168C943090605D4F3
:101E70006FF0800101612046FFF722FE20680169B2
:101E8000C943490609D4C168C943490605D46FF05E
:101E900040010161204600F0D1F820680169C94382
:101EA00089060BD4C168C943890607D46FF02001A5
:101EB00001612046BDE87040FFF703BE70BD70476A
:101EC000704700002DE9F0414649006809688842E2
:101ED0007CD101F0C7FD2A2869D043A14448FEF710
:101EE00043F9DFF81081444C4FF400570126E0B16C
:101EF000002239464046FFF728F9E6710320FEF735
:101F000025FE032200213D48FEF79AFC3CA13B48F8
:101F1000FEF7ECFCFEF734FE607801220830C1B217
:101F20003648FEF78DFC00F01BFD37A13048FEF768
:101F30001BF90025E0B1012239464046FFF705F9BB
:101F4000E5710320FEF702FE032200212B48FEF775
:101F500077FC2FA12948FEF7C9FCFEF711FE607837
:101F600001220830C1B22548FEF76AFC00F0F8FCF7
:101F70002AA11F48FEF7F8F8A8B166710220FEF703
:101F8000E5FD022200211D48FEF75AFC25A11B4851
:101F9000FEF7ACFCFEF7F4FD607801220830C1B218
:101FA0001648FEF74DFC6079012810D012E000F0D1
:101FB000D7FCBFF34F8F1F4801681F4A01F4E0614F
:101FC00011430160BFF34F8F00BFFDE708E0208998
:101FD000401C20812089B0F5B47F01D16571258135
:101FE000BDE8F081200300204C65644F6E000000C6
:101FF0008401002000100140180000205000002043
:102000004C65643A204F6E004C65644F6666000074
:102010004C65643A204F6666000000004B6E6577A1
:10202000000000005374617475733A204B6E65773D
:10203000000000000CED00E00400FA057047704756
:1020400070B5026804461068D168536910F00F0F2C
:1020500052D003F0010501F490762E435FD0C20701
:1020600005D0CA0503D5E26B42F00102E2634207E4
:1020700005D5DA0703D0E26B42F00202E263820781
:1020800005D5DA0703D0E26B42F00402E2630207EF
:1020900007D501F020022A4303D0E26B42F0080288
:1020A000E263E26B002A33D0800604D5880602D5AD
:1020B000204600F0FDFE20684069E16BC0F380100F
:1020C000090700D428B3204600F0E4FE20684169E7
:1020D00049061AD5416921F040014161606BA0B108
:1020E0002D494163606BFEF725FE002810D0606B20
:1020F000416BBDE870400847830610D58B060ED5AE
:102100002046BDE8704000F0D3BE2046FFF797FFA1
:1021100070BD2046FFF793FF0020E06370BD03060B
:102120002BD50B0629D594F839002128F6D1A068C3
:10213000B0F5805F01D12069B0B1206A411C2162F5
:10214000216800784860E08C401E0004000CE084A8
:10215000E4D12068C16821F08001C1602068C168B5
:1021600041F04001C16070BD206A0088C0F30800E2
:102170005060206A801C2062E5E74006F3D54806DF
:10218000F1D5D168204621F04001D160202184F8AA
:10219000391000F002F970BD852E000870B50400FA
:1021A00004D094F83900002510B106E0012070BD7C
:1021B00084F83850204600F023F8242084F83900B1
:1021C0002068C16821F40051C160204600F0B6FECD
:1021D0002068016921F4904101612068416921F082
:1021E0002A0141612068C16841F40051C160E56382
:1021F000202084F8390084F83A00002070BD0000E7
:1022000030B585B0002400940194029403940068D2
:10221000184988422CD11848816941F48041816174
:10222000816901F480410491816941F00401816177
:102230008069124D00F0040004904FF4007000908B
:10224000022001900320039069462846FEF788FE8D
:102250002815CDE90004694628460294FEF780FE61
:10226000002201212520FFF769F92520FFF758F901
:1022700005B030BD003801400010024000080140A8
:1022800090F83A30202B22D1F9B1F2B190F83830E1
:10229000012B1CD081628285C2850021C16322226C
:1022A00080F83A2080F838100168CA6842F48072D9
:1022B000CA6001684A6942F001024A610068C16867
:1022C00041F02001C16000207047012070470220CA
:1022D0007047000000680349884201D101F050BDF9
:1022E00070470000003801402DE9F843044690F89B
:1022F00039001F4616460D4620284CD1C5B1BEB147
:1023000094F83800012846D0012084F838004FF0B6
:102310000008C4F83C80212084F83900FEF71AFF39
:10232000A6848146E684A068B0F5805F03D004E00F
:102330000120BDE8F883206928B12E465FF0000532
:1023400084F838800EE00026FAE78021204600F06D
:1023500051FEA0B9AEB116F8010B21684860E08CBF
:10236000401EE084E08C4B464FF0000200970028AE
:10237000EBD14FF04001204600F03CFE30B103208D
:10238000D7E735F8020BC0F30800E6E7202084F811
:1023900039000020CDE70220CBE77047FEE7016857
:1023A0004A69D24352050FD46FF480624A6100211A
:1023B00040F8301F202242738173026942F0040208
:1023C000026101730120704700207047F8B5044690
:1023D000C06A1E460D461746082807D0012805D0BA
:1023E00010F5803F02D0206B122804D120680168CC
:1023F00041F480710160134600224FF00111204624
:10240000009600F057F840B120680068C00502D57A
:102410004FF4007020640320F8BD2069B0F5804FB0
:102420000ED00620216800EAD51040F0F0000861C7
:1024300033463A460B49204600F070F878B902E07E
:1024400005F0FE0000E0E8B2216808610549334666
:102450003A46891F204600F061F80028DCD00120B0
:10246000F8BD00000800010070B516460D46044690
:102470000DE02046FFF793FF08B1012070BD681CF6
:1024800005D0FEF767FE801BA84207D835B120684B
:102490004069C0434007ECD4002070BD002044F8E0
:1024A000300F20216173A073216941F02001216167
:1024B0002073E2E72DE9F0471E4690460D4604469C
:1024C000C1F30747DDF8209008E0701C06D0FEF746
:1024D00041FEA0EB0900B0420FD876B12068012F71
:1024E00018D0806925EA00000004000C14D00021F7
:1024F0004145EAD00020BDE8F087002044F8300FC5
:1025000020216173A073216941F0200121612073B2
:102510000120F0E74069E5E70121E9E72DE9F0470F
:102520009A4691460E46044600254FF02008C1F316
:10253000074725E020684069C043400514D420685F
:10254000016841F40071016021686FF480604861A6
:10255000256384F83D8084F83E50206C40F00400F0
:10256000206484F83C501FE0B9F1FF3F08D0FEF72B
:10257000F1FDA0EB0A0149450CD8B9F1000F09D0D3
:102580002068012F13D0806926EA00000004000CA7
:102590000BD0CFE744F8305F84F80D80A573206935
:1025A00040F02000206125730120BDE8F0874069DC
:1025B000EAE770B516460D4604460DE02046FFF7E3
:1025C000EEFE08B1012070BD681C05D0FEF7C2FD0B
:1025D000801BA84207D835B120684069C043000677
:1025E000ECD4002070BD002044F8300F202161732E
:1025F000A073216941F0200121612073E2E700000E
:1026000005480021FF22C181027504228275C1752F
:102610000249FF20087070475C0000201500002070
:102620002DE9F04186B000252B48009501950295D3
:102630000395816941F010018161816901F0100108
:102640000491816941F020018161816901F02001DB
:102650000491816941F004018161816901F0040103
:102660000491816941F0080181618069012200F0D3
:1026700008001A4F5403049021463846FEF765FDC2
:10268000DFF85C80002240F603414046FEF75DFD26
:10269000012211024046FEF758FD00940124022653
:1026A000CDE90246694638460194FEF759FCF02010
:1026B000CDE90005694602940A48FEF751FC40F650
:1026C0000350CDE90004CDE9024669464046FEF7D5
:1026D00047FC06B0BDE8F081001002400010014048
:1026E000000C0140000801400D4810B50B49016085
:1026F0000C49416000214FF480428160C0E903121F
:1027000041618161C1610162FEF72AFD002803D0A9
:10271000BDE81040FEF782BA10BD00000054004032
:1027200084020020A086010010B586B0002417485E
:102730000094019402940394049413490594016055
:102740000721C0E901144FF6FE71C0E9031444618A
:102750008461FFF7EBF908B1FEF760FA4FF480509F
:10276000009069460948FFF78BFA08B1FEF756FA60
:10277000049404A905480594FFF7A4F9002801D0A2
:10278000FEF74CFA06B010BD002C0140D802002024
:1027900010B586B000241648009401940294039466
:1027A00004944FF080410594016041F63F71C0E907
:1027B00001140911C0E903148461FFF7B7F908B1E6
:1027C000FEF72CFA4FF48050009069460848FFF756
:1027D00057FA08B1FEF722FA049404A904480594B4
:1027E000FFF770F9002801D0FEF718FA06B010BD07
:1027F000200300200C4810B50A4901604FF416511F
:102800004160002181600C22C160C0E90412816135
:10281000C161FFF7C3FC002803D0BDE81040FEF7FC
:10282000FDB910BD0038014068030020FEE7FEE757
:102830007047000070B5444CA179412918D020465A
:102840000026407804F1140544291CD0422933D0D5
:10285000432948D0A278012A09D1022807D83B4849
:10286000FEF71CF86078A1792954401C607070BD97
:10287000012208213548FDF7E3FF3448FDF77EFFCC
:102880000120A07070BD0028FCD0401EC0B2607056
:102890002E540120FEF75AF9012200212B48FDF7A2
:1028A000CFFF2BA12948FEF721F8BDE8704026494B
:1028B00026481431FEF71AB8667000202E54401CCA
:1028C000C0B20428FAD30120FEF740F9012200210A
:1028D0001E48FDF7B5FF1EA11C48FEF707F8BDE82E
:1028E0007040FEF74DB90028CCD01848FDF73FFFE7
:1028F0006078012804D0022805D003280DD111E00A
:102900002878303808E028786978303800EB800083
:10291000D02202EB4000084420700C48FDF727FF4E
:10292000A67070BD2878A978303800EBC00202EBA1
:10293000001001EB80006978F02201EB810102EBCD
:1029400041010844E8E70000180000205000002082
:1029500054656D705365743A0000000070470000C4
:1029600010B5FEF7E9FA0E4801210022C0E9002166
:102970000C4CC0E902410C49FEF73AFA40B90A484A
:10298000002310382146C2790120FEF795FA18B1CC
:10299000BDE81040FEF780BAFEF784FA002010BDB3
:1029A0007401002000000108280000201FB500214C
:1029B0000191029103914FF4807100916946FEF7F5
:1029C000CFFA1FBD1FB5002102914FF48071009115
:1029D00001210191022103916946FEF7C1FA1FBD51
:1029E00070B500F025F9012863D140F6B83231A165
:1029F00031A000F0B5F801285BD10220FEF7A6F85F
:102A0000022200213148FDF71BFF31A12F48FDF7BD
:102A10006DFFFEF79FFB044647F230553EE031A1C3
:102A20003248FDF7A1FB48B10220FEF78FF80222E1
:102A300000212648FDF704FF2DA10DE030A12B4811
:102A4000FDF792FB60B10220FEF780F80222002120
:102A50001E48FDF7F5FE2DA11C48FDF747FF22E0BB
:102A60002FA12248FDF780FB48B10220FEF76EF847
:102A7000022200211548FDF7E3FE2CA1ECE730A16E
:102A80001A48FDF771FB48B10220FEF75FF80222F9
:102A900000210E48FDF7D4FE2CA1DDE7FEF75AFB1E
:102AA000001BA842BBD3BDE870404FF47A70FEF71C
:102AB0008DB970BD4F4B000041544430393634312C
:102AC00032313730323B0D0A000000005000002048
:102AD0005374617475733A205761726E696E672E14
:102AE0002E2E0000425553590000000084010020A2
:102AF0005374617475733A204255535900000000B5
:102B00004E4F204341525249455200005374617464
:102B100075733A204E4F20434152524945520000AE
:102B20004E4F20414E53574552000000537461747C
:102B300075733A204E4F20414E53574552000000C6
:102B40004E4F204449414C544F4E450053746174DC
:102B500075733A4E4F204449414C544F4E45000046
:102B60002DE9F74F4FF0FF3982B017464C462D4EF6
:102B7000DFF8B4804EE000BFFEF702F8FEF7EAFA95
:102B80000546FEF7E7FA0090029801F0E9F82648BA
:102B90004FF0000A00F10C0100F1180B019108E060
:102BA000FEF7D8FA401BB84203D9484605B0BDE845
:102BB000F08F30780028F3D0FEF7CCFA054617E006
:102BC00001221A480199FFF75BFB70B1FEF7C2FAC8
:102BD0000099401A64280BD986F800A0584603993A
:102BE000FDF7C2FAE0B1012418E0FEF7B3FA009055
:102BF000FEF7B0FA401BB842E2D3601CD9D0012CDA
:102C00000CD04FF47A70FEF7E1F898F81610491ED0
:102C100088F8161098F816000028ADD12046C5E7B0
:102C20004C46C6E73C0000205C0000206803002002
:102C30002DE9F047FFF7E4FC274C04264FF47A70A7
:102C4000A675FEF7C3F840F6B8394A4623A124A07A
:102C5000FFF786FF751F401C1DD0A67541F2883214
:102C600021A125A0FFF77CFF401C17D04FF4FA608C
:102C7000FEF7ACF8FEF76EFA4CF25031084401272B
:102C800004F1180820611FA14046FDF76DFA40B11C
:102C90000220E07513E02846BDE8F0872846257538
:102CA000FAE71BA14046FDF75FFA18B125752846E3
:102CB000E775F1E7FEF74EFA21698842E3D9A67578
:102CC0004A4606A116A0FFF74BFF012801D117487D
:102CD00007700120E0E700005C0000204F4B00007F
:102CE00041540D0A000000002B4350494E3A205237
:102CF000454144590000000041542B4350494E3F88
:102D00000D0A0000534D53205265616479000000A4
:102D10004E4F5420494E5345525445440000000044
:102D200041542B434D47463D310D0A00150000200C
:102D3000FEF79EBB30B58FB028216846FDF709FA33
:102D400014210AA8FDF705FA012002250490009538
:102D5000102005900024CDE9075468460994FEF739
:102D60000BFD08B172B6FEE70F200A90CDE90B54B7
:102D70000D9400210AA80E94FEF712FC002801D041
:102D800072B6FEE70FB030BD704700000148FEF795
:102D9000E3BF000020030020F0B50268164B174C7B
:102DA000174D4FF08047984205D0B84203D0A0425B
:102DB00001D0A84203D122F070064A6832439842FB
:102DC00005D0B84203D0A04201D0A84203D122F4DA
:102DD0004074CA6822434C6922F080022243026098
:102DE0008A68C2620A688262984201D109690163F5
:102DF00001214161F0BD0000002C014000040040B1
:102E00000008004010B5846842EA032224F47F449D
:102E10000A432243826010BD826822F070020A4396
:102E200042F007018160704710B5036A046A24F01C
:102E300001040462846924F0F00444EA021423F0DB
:102E40000A020A438461026210BD10B5036A23F0CE
:102E5000100303628369046A23F4704343EA023275
:102E600024F0A00343EA01118261016210BD000059
:102E7000012202490248FFF703BA0000680000205F
:102E80006803002010B5406A0021C185C184FFF7A6
:102E9000D6F810BD0168CA6822F49072CA60016851
:102EA0004A6922F001024A61202180F83A107047F5
:102EB00010B590F83A10222901D0022010BD826886
:102EC0004FF480539A4201D1016921B1816A9A423B
:102ED0001BD04AB10AE00268816A5268C2F3080254
:102EE0000A80816A891C08E0026972B1026852682E
:102EF00002F07F020A70816A491C8162C18D491EFD
:102F00000904090CC18503D016E002685268F1E794
:102F10000168CA6822F02002CA600168CA6822F407
:102F20008072CA6001684A6922F001024A61202168
:102F300080F83A10FFF7CEF9002010BD70B50446B6
:102F400000680169E26821F440511143016121697F
:102F5000A0680843616908432168CA6841F20C63AC
:102F60009A430243CA6020684169A26921F4407112
:102F7000114341611E492068884202D1FEF7B6FB29
:102F800001E0FEF7A3FB00EBC00101EB001260685B
:102F900064218000B2FBF0F3B3FBF1F36FF018068D
:102FA0007343B2FBF0F5B2FBF0F605EB8305322379
:102FB00003EB0515B5FBF1F5B6FBF1F605F0F005F1
:102FC00005EB0615B2FBF0F6B2FBF0F0B0FBF1F04A
:102FD0006FF01802504306EB800003EB0010B0FBCB
:102FE000F1F0216800F00F002844886070BD0000F7
:102FF000003801402DE9F041984617460E46044638
:10300000069D1DE0681C1BD02DB1FEF7A3F8A0EBB8
:103010000800A84214D92068C16821F4D071C160A9
:103020002068416921F001014161202084F83900C4
:1030300084F83A00002084F838000320BDE8F081CD
:103040002068006836EA000004D00020B842D9D0D9
:103050000020F3E70120F9E70148FEF7F1BF000087
:1030600068030020FEE700000FB4084B10B504A968
:1030700002AA039800F0EEF8044602A9002000F02E
:1030800080FC204610BC5DF814FB0000833900086A
:103090000907090E002804DB00F1E02080F8001485
:1030A000704700F00F0000F1E02080F8141D704719
:1030B00002E008C8121F08C1002AFAD17047704701
:1030C000002001E001C1121F002AFBD1704700005F
:1030D0002DE9FF5F82B00021DDE90430020DDDF84B
:1030E00040B0034318D044F61050A2F2FF324243DE
:1030F0001514119801281FD0A5EB0B00401C5FEAA6
:10310000000A4FF000064E4FDFF83891B0465046A7
:1031100015D5CAF1000413E0119801244AA301282F
:1031200001D16FEA0B010298119AC0E90031C0E9A0
:10313000024206B0BDE8F09FCBF10000DFE7044695
:103140000021404A491842EB0450CDE9001012E03A
:10315000E00707D032463B4640464946FDF765F951
:103160008046894632463B4610461946FDF75DF9D2
:1031700006460F466410002CEAD1DDE90401DDE9C2
:103180000023BAF1000F06DAFDF74FF942464B462D
:10319000FDF74BF905E0FDF7BAF942464B46FDF75E
:1031A000B6F904460E460022284BFDF737FA03D83D
:1031B0004FF0FF30014607E00022254B2046314604
:1031C000FDF78CF8FDF712FA102409E0002C0ADB59
:1031D0000A220023FDF71AF8039B30321A55641EA9
:1031E00050EA0102F2D1641C039AC4F111031444A1
:1031F000119A012A03D0012208430DD10AE00843A5
:1032000004D000204FF0110B119072E7A3EB0B05D7
:103210006D1E0DE05B4504DD4FF0000205F1010578
:1032200004E003DA4FF00002A5F10105002AECD01A
:1032300002981199C0E90231C0E9004579E7000020
:10324000000014400000F03F300000000000F04398
:103250000000E03F2DE9FF4F95B09B4689460646AA
:1032600000250FE2252877D100242746F84A0121BE
:10327000059400E0044316F8013F203B01FA03F0F7
:103280001042F7D130782A2811D06FF02F03307810
:10329000A0F13002092A16D8059A44F0020402EB84
:1032A000820203EB42021044761C0590EFE759F8C6
:1032B000042B0592002A03DA504244F4005405908E
:1032C00044F00204761C30782E2816D116F8010F2F
:1032D00044F004042A280DD06FF02F023078A0F1BA
:1032E0003003092B09D807EB870302EB4303C71808
:1032F000761CF3E759F8047B761C30786C280FD0E5
:1033000006DC4C2817D068280DD06A2814D104E0B8
:10331000742810D07A280FD10DE044F400140AE08C
:1033200044F4801401E044F440147278824202D1E3
:1033300004F58014761C761C307866280BD013DCDC
:10334000582877D009DC002875D04528F6D04628C3
:10335000F4D047281AD19DE118E0632835D06428BD
:1033600079D0652812D195E1702873D008DC6728E0
:10337000F1D069286FD06E280DD06F2806D1B5E046
:1033800073282CD0752875D0782874D05A46179990
:1033900090476D1C75E1C4F30250022809D0032840
:1033A0000DD0D9F8001004280DD00D6009F10409E2
:1033B00067E1D9F80010EA17C1E90052F6E7D9F839
:1033C00000100D80F2E70D70F0E719F8041B8DF87E
:1033D000001000208DF80100EA46012003E059F8B2
:1033E00004AB4FF0FF3061074FF0000102D40DE055
:1033F00008F101018846B9420FDA8045F8DB1AF876
:1034000008100029F4D108E008F101018846814242
:10341000FADB1AF808100029F6D105985B46A0EBF4
:10342000080721463846179A00F094FA284400EB22
:10343000080507E04DE029E10DE01AF8010B5A46B6
:1034400017999047B8F10108F7D25B4621463846F4
:10345000179A13E142E00A220092C4F302524FF09D
:10346000000A022A08D059F804CB032A4FEAEC716B
:103470000AD00DE029E02AE009F1070121F0070256
:10348000F2E802C1914609E00FFA8CFC4FEAEC71B8
:10349000042A03D14FFA8CFC4FEAEC71002907DAB9
:1034A0000A460021DCF1000C61EB02012D2202E052
:1034B000220504D52B228DF80420012203E0E20727
:1034C00001D02022F7E7904659E00A2102E01022BD
:1034D0000DE010214FF0000A00910BE010224FF098
:1034E000000A44F004040827009203E008224FF089
:1034F000000A0092C4F30252022A05D059F804CB04
:103500000021032A08D009E009F1070121F0070290
:10351000F2E802C1914605E01FFA8CFC042A01D1B1
:103520000CF0FF0C4FF00008220728D5702806D0B9
:10353000009B83F0100353EA0A0305D00EE04022FB
:103540008DF80420012208E05CEA010206D0302256
:103550008DF804208DF8050002229046009B83F030
:10356000080353EA0A030AD15CEA010201D16207A7
:1035700005D530228DF804204FF001087F1E582811
:1035800004D034A003900EA802900DE036A0F9E715
:1035900053466046009AFCF739FE84460398825CE5
:1035A0000298401E029002705CEA0100F0D102987D
:1035B00006A9081A00F1200A600702D524F4803415
:1035C00000E00127574502DDA7EB0A0000E00020DC
:1035D00000EB0A01009005984144401A0590E00371
:1035E00006D45B462146179A059800F0B3F90544C6
:1035F000002706E001A85A46C05D179990476D1C48
:103600007F1C4745F6DBE0030CD55B462146179A45
:10361000059800F09FF9054404E030205A461799B8
:1036200090476D1C0099481E00900029F5DC08E0C9
:10363000029802995A460078491C029117999047BE
:103640006D1CBAF10001AAF1010AF1DC65E100008C
:103650000928010030313233343536373839616268
:10366000636465660000000030313233343536372C
:1036700038394142434445460000000000F058F903
:103680000544761C307800287FF4ECAD19B028464C
:10369000BDE8F08F620700D4062709F1070222F087
:1036A000070CFCE80223E14603F000485FEA080C3F
:1036B00002D00FF2702C0DE05FEA045C02D50FF22D
:1036C000682C07E05FEAC47C02D00FF2602C01E0B6
:1036D000AFF2700C4FF0FF3823F00043CDF850C02C
:1036E00065280CD006DC452809D046281DD047287F
:1036F0003DD13DE0662818D067287ED138E0002112
:10370000112F01DB112000E0781CCDE9000106A992
:103710000EA8FFF7DDFCDDE90F010E9A03910021F1
:10372000009207F1010A04914DE04FF0004000972C
:10373000CDE9011006A90EA8FFF7CAFCDDE90F02CA
:1037400003920E9B11990022DDF80CA000930492C5
:1037500011B9791C00EB010AB7EB0A0004D4C0F1DF
:10376000FF3007F1010A0490AAEB0700019044E042
:10377000012F00DA01270021112F01DD112000E0C7
:103780003846CDE9000106A90EA8FFF7A1FCDDE946
:103790000F010E9A0391002104910092BA4621076D
:1037A0000CD40399514500DA8A46BAF1010F05DDC0
:1037B000009AAAF10101515C302908D0B84202DA1E
:1037C00010F1040F06DA0121CDE9011015E0AAF18C
:1037D0000101E9E7002805DC049901440491AAEB02
:1037E000000102E0411C514500DD8A460499401A5F
:1037F000401C01904FF000400290200704D4019833
:10380000504501DBCDF8048000208DF84F00029870
:103810000DF14F07B0F1004F25D02B200E900298EC
:103820004FF0020800280CDA404202902D200E9042
:1038300007E00A210298FCF7D3FC3031029007F828
:10384000011DB8F10001A8F10108F2DC029800287E
:10385000EFD1791E0E980870307800F0200040F00B
:10386000450007F8020D12A8C01B00F107081498C4
:10387000007800B1012000EB0A01019801EBE07132
:1038800005984144401A401E0590E00306D45B466B
:103890002146179A059800F05DF8054414980078C1
:1038A00018B15A46179990476D1CE00324D55B4622
:1038B0002146179A059800F04DF805441CE004983D
:1038C000002807DBDDE90301884203DD0098405C46
:1038D000179901E0179930205A469047049805F14E
:1038E0000105401C04900198401E019004D12E2037
:1038F0005A46179990476D1CBAF10001AAF1010AC6
:10390000DDDC05E017F8010B5A46179990476D1C4E
:10391000B8F10001A8F10108F4DC5B462146179AD2
:103920000598ABE62D0000002B00000020000000F1
:103930002DE9F041044600251E461746880404D4AC
:1039400005E039462020B0476D1C641EF9D5284695
:10395000BDE8F0812DE9F041044600251E46904661
:10396000C80301D5302700E02027880404D505E0EE
:1039700041463846B0476D1C641EF9D52846BDE85F
:10398000F0810A68531C0B601070704710B5174C1B
:1039900000224FF400612046FDF7D7FB00222115DD
:1039A0002046FDF7D2FB002202212046FDF7CDFB89
:1039B000002201212046FDF7C8FB0D4C8021204646
:1039C000FDF7BEFB80B140212046FDF7B9FB58B1A1
:1039D00020212046FDF7B4FB30B110212046FDF731
:1039E000AFFB08B1002010BD012010BD000C01404C
:1039F0000008014070B5104D002480212846FDF7D5
:103A00009FFB78B140212846FDF79AFB60B1202149
:103A10002846FDF795FB48B110212846FDF790FB9D
:103A200030B106E0012404E0022402E0032400E0B7
:103A30000424204670BD0000000801400449002213
:103A40000B685A6209684A6A8242FCD370470000D8
:103A5000D802002000210A464254491CFF29FBDD00
:103A60007047000070B5FFF791FFE0B11420FDF73B
:103A7000ADF9FFF78BFFB0B10124204600F03AF911
:103A8000FFF7B8FF05000AD0FFF780FF0028FBD141
:103A9000064800EB8400284410F8050C70BD641C37
:103AA000E4B2042CE9D9002070BD0000050000201C
:103AB00008B5FDF7E5FCFFF73DF9FEF7B1FDFEF7B0
:103AC00013FEFEF797FEFEF72FFEFEF761FE0420C1
:103AD000009014234E2268496848FCF760FE67484E
:103AE000FCF753FE002211466448FCF7A9FE64A1CE
:103AF0006248FCF7FBFE00220C216048FCF7A0FEA8
:103B000061A15E48FCF7F2FE012200215B48FCF750
:103B100097FE5FA15948FCF7E9FE022200215748B1
:103B2000FCF78EFE5DA15548FCF7E0FE5F4800689B
:103B30005F4C82B25E4801270A3C02805D484FF428
:103B400000514FF00008012A01D05AB118E00022BC
:103B5000FDF7FBFAE771032200214848FCF770FEED
:103B600055A10AE00122FDF7F0FA84F8078003224C
:103B700000214248FCF764FE51A14048FCF7B6FE24
:103B80005248FEF729F85248FEF74EF8FFF770F951
:103B900040F2DC56FCF718FFA078012809D137481D
:103BA000FCF7ECFD607801220830C1B23348FCF725
:103BB00047FEFDF7CFFA054658E02078FCF7EDFA0E
:103BC000E168FCF703FB33D2E770607918B1207924
:103BD000012817D044E027710220FCF7B7FF02222A
:103BE00000212648FCF72CFE3AA12448FCF77EFE73
:103BF000607801220830C1B22048FCF721FEFEF7B0
:103C0000EFFE2DE00220FCF7A1FF022200211B485D
:103C1000FCF716FE33A11948FCF768FE6078012214
:103C20000830C1B21548FCF70BFE84F8048017E099
:103C3000E078012814D10220FCF788FF022200213D
:103C40000E48FCF7FDFD15A10C48FCF74FFE60780F
:103C500001220830C1B20948FCF7F2FD84F8038064
:103C6000FFF700FFA07108B1FEF7E4FDFDF772FA5F
:103C7000401BB0428ED2A0E78402002050000020FA
:103C800054656D703A00000048756D3A0000000000
:103C900054656D705365743A00000000537461748C
:103CA00075733A20534146450000000000000108AA
:103CB00022000020001001404C65643A204F6E0045
:103CC0004C65643A204F666600000000D802002070
:103CD000200300205374617475733A20544F4F20B1
:103CE000484F54005374617475733A204B6E657776
:103CF000000000002DE9F0410122184D0446D602D3
:103D000031462846FDF721FA012297023946284616
:103D1000FDF71BFA012202212846FDF716FA0122BF
:103D200011462846FDF711FA012C0CD0022C0DD0BB
:103D3000032C0ED0042C0FD1002201212846BDE80F
:103D4000F041FDF702BA00223146F7E7002239467A
:103D5000F4E700220221F1E7BDE8F081000C014008
:103D600010B50446FCF712FA214682B2BDE81040B5
:103D700040F6B8330148FEF7B7BA000068030020E8
:103D8000104830B4C2890021FF2A00D9C1810D4AF0
:103D9000C4891832037BA354C2890B4C037BA35400
:103DA000084B1933D154C289631CD154521CC281AF
:103DB0000649012002460870024930BC0C31044813
:103DC000FEF75EBA5C000020840100203C00002069
:103DD000680300200000000000000000010203044E
:103DE0000607080900000000010203040C3E000859
:103DF0000000002050000000B03000085C3E0008C9
:103E00005000002078070000C030000800000000CB
:103E1000003132334134353642373839432A302382
:103E200044000000640000000000000000000000EA
:103E30000000000000000000000000000000000082
:103E40000000000000000000000000000100000071
:0C3E500010000000000000000024F4003E
:04000005080000ED02
:00000001FF
